{
  "abi": [
    {
      "type": "function",
      "name": "addPerson",
      "inputs": [
        {
          "name": "_name",
          "type": "string",
          "internalType": "string"
        },
        {
          "name": "_personFavoriteNumber",
          "type": "uint256",
          "internalType": "uint256"
        }
      ],
      "outputs": [],
      "stateMutability": "nonpayable"
    },
    {
      "type": "function",
      "name": "addPersonVersionTwo",
      "inputs": [
        {
          "name": "_name",
          "type": "string",
          "internalType": "string"
        },
        {
          "name": "_personFavoriteNumber",
          "type": "uint256",
          "internalType": "uint256"
        }
      ],
      "outputs": [],
      "stateMutability": "nonpayable"
    },
    {
      "type": "function",
      "name": "createPerson",
      "inputs": [
        {
          "name": "_name",
          "type": "string",
          "internalType": "string"
        },
        {
          "name": "_personFavoriteNumber",
          "type": "uint256",
          "internalType": "uint256"
        }
      ],
      "outputs": [],
      "stateMutability": "nonpayable"
    },
    {
      "type": "function",
      "name": "friend",
      "inputs": [],
      "outputs": [
        {
          "name": "personFavoriteNumber",
          "type": "uint256",
          "internalType": "uint256"
        },
        {
          "name": "name",
          "type": "string",
          "internalType": "string"
        }
      ],
      "stateMutability": "view"
    },
    {
      "type": "function",
      "name": "listOfPeople",
      "inputs": [
        {
          "name": "",
          "type": "uint256",
          "internalType": "uint256"
        }
      ],
      "outputs": [
        {
          "name": "personFavoriteNumber",
          "type": "uint256",
          "internalType": "uint256"
        },
        {
          "name": "name",
          "type": "string",
          "internalType": "string"
        }
      ],
      "stateMutability": "view"
    },
    {
      "type": "function",
      "name": "persons",
      "inputs": [
        {
          "name": "",
          "type": "string",
          "internalType": "string"
        }
      ],
      "outputs": [
        {
          "name": "personFavoriteNumber",
          "type": "uint256",
          "internalType": "uint256"
        },
        {
          "name": "name",
          "type": "string",
          "internalType": "string"
        }
      ],
      "stateMutability": "view"
    },
    {
      "type": "function",
      "name": "retrieve",
      "inputs": [],
      "outputs": [
        {
          "name": "",
          "type": "uint256",
          "internalType": "uint256"
        }
      ],
      "stateMutability": "view"
    },
    {
      "type": "function",
      "name": "store",
      "inputs": [
        {
          "name": "_favoriteNumber",
          "type": "uint256",
          "internalType": "uint256"
        }
      ],
      "outputs": [],
      "stateMutability": "nonpayable"
    }
  ],
  "bytecode": {
    "object": "0x60806040526040518060400160405280600381526020016040518060400160405280600481526020017f4d6174740000000000000000000000000000000000000000000000000000000081525081525060035f820151815f0155602082015181600101908161006e91906102bf565b50505034801561007c575f5ffd5b5061038e565b5f81519050919050565b7f4e487b71000000000000000000000000000000000000000000000000000000005f52604160045260245ffd5b7f4e487b71000000000000000000000000000000000000000000000000000000005f52602260045260245ffd5b5f60028204905060018216806100fd57607f821691505b6020821081036101105761010f6100b9565b5b50919050565b5f819050815f5260205f209050919050565b5f6020601f8301049050919050565b5f82821b905092915050565b5f600883026101727fffffffffffffffffffffffffffffffffffffffffffffffffffffffffffffffff82610137565b61017c8683610137565b95508019841693508086168417925050509392505050565b5f819050919050565b5f819050919050565b5f6101c06101bb6101b684610194565b61019d565b610194565b9050919050565b5f819050919050565b6101d9836101a6565b6101ed6101e5826101c7565b848454610143565b825550505050565b5f5f905090565b6102046101f5565b61020f8184846101d0565b505050565b5b81811015610232576102275f826101fc565b600181019050610215565b5050565b601f8211156102775761024881610116565b61025184610128565b81016020851015610260578190505b61027461026c85610128565b830182610214565b50505b505050565b5f82821c905092915050565b5f6102975f198460080261027c565b1980831691505092915050565b5f6102af8383610288565b9150826002028217905092915050565b6102c882610082565b67ffffffffffffffff8111156102e1576102e061008c565b5b6102eb82546100e6565b6102f6828285610236565b5f60209050601f831160018114610327575f8415610315578287015190505b61031f85826102a4565b865550610386565b601f19841661033586610116565b5f5b8281101561035c57848901518255600182019150602085019450602081019050610337565b868310156103795784890151610375601f891682610288565b8355505b6001600288020188555050505b505050505050565b610b278061039b5f395ff3fe608060405234801561000f575f5ffd5b5060043610610086575f3560e01c80636f760f41116100595780636f760f41146101115780638390e0f11461012d578063901e42291461015e578063b7e585e01461017d57610086565b80631ef455c71461008a5780632e64cec1146100a65780632ebce631146100c45780636057361d146100f5575b5f5ffd5b6100a4600480360381019061009f9190610653565b610199565b005b6100ae6101f1565b6040516100bb91906106bc565b60405180910390f35b6100de60048036038101906100d991906106d5565b6101f9565b6040516100ec929190610760565b60405180910390f35b61010f600480360381019061010a91906106d5565b6102ae565b005b61012b60048036038101906101269190610653565b6102b7565b005b6101476004803603810190610142919061078e565b61031d565b604051610155929190610760565b60405180910390f35b6101666103db565b604051610174929190610760565b60405180910390f35b61019760048036038101906101929190610653565b610472565b005b6040518060400160405280828152602001838152506001836040516101be919061080f565b90815260200160405180910390205f820151815f015560208201518160010190816101e99190610a22565b509050505050565b5f5f54905090565b60028181548110610208575f80fd5b905f5260205f2090600202015f91509050805f01549080600101805461022d90610852565b80601f016020809104026020016040519081016040528092919081815260200182805461025990610852565b80156102a45780601f1061027b576101008083540402835291602001916102a4565b820191905f5260205f20905b81548152906001019060200180831161028757829003601f168201915b5050505050905082565b805f8190555050565b5f6040518060400160405280838152602001848152509050600281908060018154018082558091505060019003905f5260205f2090600202015f909190919091505f820151815f015560208201518160010190816103159190610a22565b505050505050565b6001818051602081018201805184825260208301602085012081835280955050505050505f91509050805f01549080600101805461035a90610852565b80601f016020809104026020016040519081016040528092919081815260200182805461038690610852565b80156103d15780601f106103a8576101008083540402835291602001916103d1565b820191905f5260205f20905b8154815290600101906020018083116103b457829003601f168201915b5050505050905082565b6003805f0154908060010180546103f190610852565b80601f016020809104026020016040519081016040528092919081815260200182805461041d90610852565b80156104685780601f1061043f57610100808354040283529160200191610468565b820191905f5260205f20905b81548152906001019060200180831161044b57829003601f168201915b5050505050905082565b6002604051806040016040528083815260200184815250908060018154018082558091505060019003905f5260205f2090600202015f909190919091505f820151815f015560208201518160010190816104cc9190610a22565b5050505050565b5f604051905090565b5f5ffd5b5f5ffd5b5f5ffd5b5f5ffd5b5f601f19601f8301169050919050565b7f4e487b71000000000000000000000000000000000000000000000000000000005f52604160045260245ffd5b610532826104ec565b810181811067ffffffffffffffff82111715610551576105506104fc565b5b80604052505050565b5f6105636104d3565b905061056f8282610529565b919050565b5f67ffffffffffffffff82111561058e5761058d6104fc565b5b610597826104ec565b9050602081019050919050565b828183375f83830152505050565b5f6105c46105bf84610574565b61055a565b9050828152602081018484840111156105e0576105df6104e8565b5b6105eb8482856105a4565b509392505050565b5f82601f830112610607576106066104e4565b5b81356106178482602086016105b2565b91505092915050565b5f819050919050565b61063281610620565b811461063c575f5ffd5b50565b5f8135905061064d81610629565b92915050565b5f5f60408385031215610669576106686104dc565b5b5f83013567ffffffffffffffff811115610686576106856104e0565b5b610692858286016105f3565b92505060206106a38582860161063f565b9150509250929050565b6106b681610620565b82525050565b5f6020820190506106cf5f8301846106ad565b92915050565b5f602082840312156106ea576106e96104dc565b5b5f6106f78482850161063f565b91505092915050565b5f81519050919050565b5f82825260208201905092915050565b8281835e5f83830152505050565b5f61073282610700565b61073c818561070a565b935061074c81856020860161071a565b610755816104ec565b840191505092915050565b5f6040820190506107735f8301856106ad565b81810360208301526107858184610728565b90509392505050565b5f602082840312156107a3576107a26104dc565b5b5f82013567ffffffffffffffff8111156107c0576107bf6104e0565b5b6107cc848285016105f3565b91505092915050565b5f81905092915050565b5f6107e982610700565b6107f381856107d5565b935061080381856020860161071a565b80840191505092915050565b5f61081a82846107df565b915081905092915050565b7f4e487b71000000000000000000000000000000000000000000000000000000005f52602260045260245ffd5b5f600282049050600182168061086957607f821691505b60208210810361087c5761087b610825565b5b50919050565b5f819050815f5260205f209050919050565b5f6020601f8301049050919050565b5f82821b905092915050565b5f600883026108de7fffffffffffffffffffffffffffffffffffffffffffffffffffffffffffffffff826108a3565b6108e886836108a3565b95508019841693508086168417925050509392505050565b5f819050919050565b5f61092361091e61091984610620565b610900565b610620565b9050919050565b5f819050919050565b61093c83610909565b6109506109488261092a565b8484546108af565b825550505050565b5f5f905090565b610967610958565b610972818484610933565b505050565b5b818110156109955761098a5f8261095f565b600181019050610978565b5050565b601f8211156109da576109ab81610882565b6109b484610894565b810160208510156109c3578190505b6109d76109cf85610894565b830182610977565b50505b505050565b5f82821c905092915050565b5f6109fa5f19846008026109df565b1980831691505092915050565b5f610a1283836109eb565b9150826002028217905092915050565b610a2b82610700565b67ffffffffffffffff811115610a4457610a436104fc565b5b610a4e8254610852565b610a59828285610999565b5f60209050601f831160018114610a8a575f8415610a78578287015190505b610a828582610a07565b865550610ae9565b601f198416610a9886610882565b5f5b82811015610abf57848901518255600182019150602085019450602081019050610a9a565b86831015610adc5784890151610ad8601f8916826109eb565b8355505b6001600288020188555050505b50505050505056fea2646970667358221220cc23b3cbc2da351fc69594dc194db9e462b6e92c4ec2b8b9f9dee25de12d558564736f6c634300081e0033",
    "linkReferences": {}
  },
  "methodIdentifiers": {
    "addPerson(string,uint256)": "6f760f41",
    "addPersonVersionTwo(string,uint256)": "b7e585e0",
    "createPerson(string,uint256)": "1ef455c7",
    "friend()": "901e4229",
    "listOfPeople(uint256)": "2ebce631",
    "persons(string)": "8390e0f1",
    "retrieve()": "2e64cec1",
    "store(uint256)": "6057361d"
  },
  "id": 0
}